{
  "contractName": "AddressHelper",
  "abi": [
    {
      "constant": true,
      "inputs": [
        {
          "name": "data",
          "type": "address"
        }
      ],
      "name": "addressToString",
      "outputs": [
        {
          "name": "",
          "type": "string"
        }
      ],
      "payable": false,
      "stateMutability": "pure",
      "type": "function"
    },
    {
      "constant": true,
      "inputs": [
        {
          "name": "s",
          "type": "string"
        }
      ],
      "name": "stringToAddress",
      "outputs": [
        {
          "name": "",
          "type": "address"
        }
      ],
      "payable": false,
      "stateMutability": "pure",
      "type": "function"
    },
    {
      "constant": true,
      "inputs": [
        {
          "name": "c",
          "type": "uint256"
        }
      ],
      "name": "fromHexChar",
      "outputs": [
        {
          "name": "",
          "type": "uint256"
        }
      ],
      "payable": false,
      "stateMutability": "pure",
      "type": "function"
    }
  ],
  "bytecode": "0x608060405234801561001057600080fd5b5061079f806100206000396000f3fe608060405234801561001057600080fd5b50600436106100415760003560e01c806315706fdf146100465780635e57966d14610141578063b7312707146101fe575b600080fd5b6100ff6004803603602081101561005c57600080fd5b810190808035906020019064010000000081111561007957600080fd5b82018360208201111561008b57600080fd5b803590602001918460018302840111640100000000831117156100ad57600080fd5b91908080601f016020809104026020016040519081016040528093929190818152602001838380828437600081840152601f19601f820116905080830192505050505050509192919290505050610240565b604051808273ffffffffffffffffffffffffffffffffffffffff1673ffffffffffffffffffffffffffffffffffffffff16815260200191505060405180910390f35b6101836004803603602081101561015757600080fd5b81019080803573ffffffffffffffffffffffffffffffffffffffff169060200190929190505050610493565b6040518080602001828103825283818151815260200191508051906020019080838360005b838110156101c35780820151818401526020810190506101a8565b50505050905090810190601f1680156101f05780820380516001836020036101000a031916815260200191505b509250505060405180910390f35b61022a6004803603602081101561021457600080fd5b810190808035906020019092919050505061069f565b6040518082815260200191505060405180910390f35b60006060829050602881511415801561025b5750602a815114155b1561026557600080fd5b60008090506000809050602a8351141561041557600290507f30000000000000000000000000000000000000000000000000000000000000007effffffffffffffffffffffffffffffffffffffffffffffffffffffffffffff1916836000815181106102cd57fe5b602001015160f81c60f81b7effffffffffffffffffffffffffffffffffffffffffffffffffffffffffffff19161461030457600080fd5b7f78000000000000000000000000000000000000000000000000000000000000007effffffffffffffffffffffffffffffffffffffffffffffffffffffffffffff19168360018151811061035457fe5b602001015160f81c60f81b7effffffffffffffffffffffffffffffffffffffffffffffffffffffffffffff19161415801561040a57507f58000000000000000000000000000000000000000000000000000000000000007effffffffffffffffffffffffffffffffffffffffffffffffffffffffffffff1916836001815181106103da57fe5b602001015160f81c60f81b7effffffffffffffffffffffffffffffffffffffffffffffffffffffffffffff191614155b1561041457600080fd5b5b6000806000856020015190508392505b602083101561044e5780831a915061043c8261069f565b60108602019450826001019250610425565b85604001519050600092505b836008018310156104855780831a91506104738261069f565b6010860201945082600101925061045a565b849650505050505050919050565b606080602a6040519080825280601f01601f1916602001820160405280156104ca5781602001600182028038833980820191505090505b5090507f3000000000000000000000000000000000000000000000000000000000000000816000815181106104fb57fe5b60200101907effffffffffffffffffffffffffffffffffffffffffffffffffffffffffffff1916908160001a9053507f78000000000000000000000000000000000000000000000000000000000000008160018151811061055857fe5b60200101907effffffffffffffffffffffffffffffffffffffffffffffffffffffffffffff1916908160001a90535060008090505b60148110156106955760008160130360080260020a8573ffffffffffffffffffffffffffffffffffffffff16816105c057fe5b0460f81b9050600060108260f81c60ff16816105d857fe5b0460f81b905060008160f81c6010028360f81c0360f81b90506105fa82610717565b85600286600202018151811061060c57fe5b60200101907effffffffffffffffffffffffffffffffffffffffffffffffffffffffffffff1916908160001a90535061064481610717565b85600386600202018151811061065657fe5b60200101907effffffffffffffffffffffffffffffffffffffffffffffffffffffffffffff1916908160001a905350505050808060010191505061058d565b5080915050919050565b6000603082101580156106b3575060398211155b156106c357603082039050610712565b606182101580156106d5575060668211155b156106e857606182600a01039050610712565b604182101580156106fa575060468211155b1561070d57604182600a01039050610712565b600080fd5b919050565b6000600a60f81b827effffffffffffffffffffffffffffffffffffffffffffffffffffffffffffff191610156107585760308260f81c0160f81b9050610765565b60578260f81c0160f81b90505b91905056fea265627a7a72305820d33b1f0b7b22c12d2dde9cc753e860e21978bb446dfc5d094d5d56e3e5fcea6564736f6c634300050a0032",
  "source": "pragma solidity ^0.5.2;\n\ncontract AddressHelper {\n    function addressToString (address data) public pure returns (string memory) {\n        bytes memory s = new bytes(42);\n        s[0] = \"0\";\n        s[1] = \"x\";\n        for (uint i = 0; i < 20; i++) {\n            byte b = byte(uint8(uint(data) / (2**(8*(19 - i)))));\n            byte hi = byte(uint8(b) / 16);\n            byte lo = byte(uint8(b) - 16 * uint8(hi));\n            s[2*i + 2] = char(hi);\n            s[2*i + 3] = char(lo);\n        }\n        return string(s);\n    }\n\n    function char (byte b) internal pure returns (byte c) {\n        if (b < 0x0A) return byte(uint8(b) + 0x30);\n        else return byte(uint8(b) + 0x57);\n    }\n\n    // source: https://github.com/riflabs/RIF-Token/blob/master/contracts/util/AddressHelper.sol\n    function stringToAddress(string memory s) public pure returns(address) {\n        bytes memory ss = bytes(s);\n\n        // it should have 40 or 42 characters\n        if (ss.length != 40 && ss.length != 42) revert();\n\n        uint r = 0;\n        uint offset = 0;\n\n        if (ss.length == 42) {\n            offset = 2;\n\n            if (ss[0] != byte('0')) revert();\n            if (ss[1] != byte('x') && ss[1] != byte('X')) revert();\n        }\n\n        uint i;\n        uint x;\n        uint v;\n\n        // loads first 32 bytes from array,\n        // skipping array length (32 bytes to skip)\n        // offset == 0x20\n        assembly { v := mload(add(0x20, ss)) }\n\n        // converts the first 32 bytes, adding to result\n        for (i = offset; i < 32; ++i) {\n            assembly { x := byte(i, v) }\n            r = r * 16 + fromHexChar(x);\n        }\n\n        // loads second 32 bytes from array,\n        // skipping array length (32 bytes to skip)\n        // and first 32 bytes\n        // offset == 0x40\n        assembly { v := mload(add(0x40, ss)) }\n\n        // converts the last 8 bytes, adding to result\n        for (i = 0; i < 8 + offset; ++i) {\n            assembly { x := byte(i, v) }\n            r = r * 16 + fromHexChar(x);\n        }\n\n        return address(r);\n    }\n\n    function fromHexChar(uint c) public pure returns (uint) {\n        if (c >= 0x30 && c <= 0x39) {\n            return c - 0x30;\n        }\n\n        if (c >= 0x61 && c <= 0x66) {\n            return 10 + c - 0x61;\n        }\n\n        if (c >= 0x41 && c <= 0x46) {\n            return 10 + c - 0x41;\n        }\n\n        // Reaching this point means the ordinal is not for a hex char.\n        revert();\n    }\n}",
  "sourcePath": "/Users/ilanolkies/code/rnsdomains/rns-artifacts/contracts/util/AddressHelper.sol",
  "compiler": {
    "name": "solc",
    "version": "0.5.10+commit.5a6ea5b1.Emscripten.clang"
  },
  "schemaVersion": "3.0.10",
  "updatedAt": "2019-07-03T18:04:40.091Z",
  "devdoc": {
    "methods": {}
  },
  "userdoc": {
    "methods": {}
  }
}