{
  "contractName": "Namehash",
  "abi": [
    {
      "anonymous": false,
      "inputs": [
        {
          "indexed": false,
          "name": "",
          "type": "uint256"
        }
      ],
      "name": "I",
      "type": "event"
    },
    {
      "constant": true,
      "inputs": [
        {
          "name": "name",
          "type": "string"
        }
      ],
      "name": "hash",
      "outputs": [
        {
          "name": "",
          "type": "bytes32"
        }
      ],
      "payable": false,
      "stateMutability": "pure",
      "type": "function"
    }
  ],
  "bytecode": "0x608060405234801561001057600080fd5b506105c8806100206000396000f3fe608060405234801561001057600080fd5b506004361061002b5760003560e01c8063b411ee9414610030575b600080fd5b6100e96004803603602081101561004657600080fd5b810190808035906020019064010000000081111561006357600080fd5b82018360208201111561007557600080fd5b8035906020019184600183028401116401000000008311171561009757600080fd5b91908080601f016020809104026020016040519081016040528093929190818152602001838380828437600081840152601f19601f8201169050808301925050505050505091929192905050506100ff565b6040518082815260200191505060405180910390f35b6000806000801b905060008351141561011b5780915050610293565b610123610579565b61012c84610298565b9050610136610579565b6101746040518060400160405280600181526020017f2e00000000000000000000000000000000000000000000000000000000000000815250610298565b90506060600161018d83856102c690919063ffffffff16565b016040519080825280602002602001820160405280156101c157816020015b60608152602001906001900390816101ac5790505b50905060008090505b8151811015610212576101ee6101e9848661033b90919063ffffffff16565b610355565b8282815181106101fa57fe5b602002602001018190525080806001019150506101ca565b600090505b815181101561028a57606082600183855103038151811061023457fe5b602002602001015190506000818051906020012090508681604051602001808381526020018281526020019250505060405160208183030381529060405280519060200120965050508080600101915050610217565b84955050505050505b919050565b6102a0610579565b600060208301905060405180604001604052808451815260200182815250915050919050565b60008082600001516102ea85600001518660200151866000015187602001516103b7565b0190505b83600001518460200151018111610334578180600101925050826000015161032c8560200151830386600001510383866000015187602001516103b7565b0190506102ee565b5092915050565b610343610579565b61034e838383610492565b5092915050565b60608082600001516040519080825280601f01601f19166020018201604052801561038f5781602001600182028038833980820191505090505b50905060006020820190506103ad8185602001518660000151610530565b8192505050919050565b6000808490506000868511610482576020851161043c57600060018660200360080260020a031960001b905060008186511690506000878a8a0103905060008386511690505b82811461042e5781861061041b578a8a01965050505050505061048a565b85806001019650508386511690506103fd565b85965050505050505061048a565b60008585209050600091505b858803821161048057600086842090508082141561046c578394505050505061048a565b600184019350508180600101925050610448565b505b868601925050505b949350505050565b61049a610579565b60006104b885600001518660200151866000015187602001516103b7565b905084602001518360200181815250508460200151810383600001818152505084600001518560200151018114156104fa576000856000018181525050610525565b8360000151836000015101856000018181510391508181525050836000015181018560200181815250505b829150509392505050565b5b602081106105545781518352602083019250602082019150602081039050610531565b60006001826020036101000a0390508019835116818551168181178652505050505050565b60405180604001604052806000815260200160008152509056fea265627a7a72305820ac58e9f1c3779d8dfa90e1dbd4c2ddb4f90264d5493bb4c823777d36bc07985e64736f6c634300050a0032",
  "source": "pragma solidity ^0.5.2;\n\nimport \"./Strings.sol\";\n\ncontract Namehash {\n    using Strings for *;\n\n    event I(uint);\n\n    function hash (string memory name) public pure returns (bytes32) {\n        bytes32 node = 0x0000000000000000000000000000000000000000000000000000000000000000;\n\n        if (bytes(name).length == 0) {\n            return node;\n        }\n\n        Strings.slice memory s = name.toSlice();\n        Strings.slice memory delim = \".\".toSlice();\n        string[] memory parts = new string[](s.count(delim) + 1);\n\n        uint i;\n\n        for(i = 0; i < parts.length; i++) {\n            parts[i] = s.split(delim).toString();\n        }\n\n        for(i = 0; i < parts.length; i++) {\n            string memory part = parts[parts.length - i - 1];\n            bytes32 label = keccak256(bytes(part));\n            node = keccak256(abi.encodePacked(node, label));\n        }\n\n        return node;\n    }\n}",
  "sourcePath": "/Users/ilanolkies/code/rnsdomains/rns-artifacts/contracts/util/Namehash.sol",
  "compiler": {
    "name": "solc",
    "version": "0.5.10+commit.5a6ea5b1.Emscripten.clang"
  },
  "schemaVersion": "3.0.10",
  "updatedAt": "2019-07-03T18:04:40.096Z",
  "devdoc": {
    "methods": {}
  },
  "userdoc": {
    "methods": {}
  }
}