{
  "contractName": "PriceSubdomainRegistrar",
  "abi": [
    {
      "constant": true,
      "inputs": [],
      "name": "rns",
      "outputs": [
        {
          "name": "",
          "type": "address"
        }
      ],
      "payable": false,
      "stateMutability": "view",
      "type": "function"
    },
    {
      "constant": true,
      "inputs": [],
      "name": "whitelist",
      "outputs": [
        {
          "name": "",
          "type": "address"
        }
      ],
      "payable": false,
      "stateMutability": "view",
      "type": "function"
    },
    {
      "constant": true,
      "inputs": [],
      "name": "price",
      "outputs": [
        {
          "name": "",
          "type": "uint256"
        }
      ],
      "payable": false,
      "stateMutability": "view",
      "type": "function"
    },
    {
      "constant": true,
      "inputs": [],
      "name": "admin",
      "outputs": [
        {
          "name": "",
          "type": "address"
        }
      ],
      "payable": false,
      "stateMutability": "view",
      "type": "function"
    },
    {
      "constant": true,
      "inputs": [],
      "name": "rootNode",
      "outputs": [
        {
          "name": "",
          "type": "bytes32"
        }
      ],
      "payable": false,
      "stateMutability": "view",
      "type": "function"
    },
    {
      "constant": true,
      "inputs": [],
      "name": "token",
      "outputs": [
        {
          "name": "",
          "type": "address"
        }
      ],
      "payable": false,
      "stateMutability": "view",
      "type": "function"
    },
    {
      "inputs": [
        {
          "name": "_rns",
          "type": "address"
        },
        {
          "name": "_whitelist",
          "type": "address"
        },
        {
          "name": "_token",
          "type": "address"
        },
        {
          "name": "_rootNode",
          "type": "bytes32"
        }
      ],
      "payable": false,
      "stateMutability": "nonpayable",
      "type": "constructor"
    },
    {
      "constant": false,
      "inputs": [
        {
          "name": "label",
          "type": "bytes32"
        },
        {
          "name": "addr",
          "type": "address"
        }
      ],
      "name": "register",
      "outputs": [],
      "payable": false,
      "stateMutability": "nonpayable",
      "type": "function"
    },
    {
      "constant": false,
      "inputs": [
        {
          "name": "_price",
          "type": "uint256"
        }
      ],
      "name": "setPrice",
      "outputs": [],
      "payable": false,
      "stateMutability": "nonpayable",
      "type": "function"
    },
    {
      "constant": false,
      "inputs": [
        {
          "name": "receiver",
          "type": "address"
        },
        {
          "name": "_token",
          "type": "address"
        }
      ],
      "name": "retrieveTokens",
      "outputs": [],
      "payable": false,
      "stateMutability": "nonpayable",
      "type": "function"
    },
    {
      "constant": false,
      "inputs": [],
      "name": "transferBack",
      "outputs": [],
      "payable": false,
      "stateMutability": "nonpayable",
      "type": "function"
    }
  ],
  "bytecode": "0x6080604052336000806101000a81548173ffffffffffffffffffffffffffffffffffffffff021916908373ffffffffffffffffffffffffffffffffffffffff160217905550604051610050906101ea565b604051809103906000f08015801561006c573d6000803e3d6000fd5b50600160006101000a81548173ffffffffffffffffffffffffffffffffffffffff021916908373ffffffffffffffffffffffffffffffffffffffff160217905550670de0b6b3a76400006006553480156100c557600080fd5b506040516115e43803806115e4833981810160405260808110156100e857600080fd5b810190808051906020019092919080519060200190929190805190602001909291908051906020019092919050505083600260006101000a81548173ffffffffffffffffffffffffffffffffffffffff021916908373ffffffffffffffffffffffffffffffffffffffff16021790555082600360006101000a81548173ffffffffffffffffffffffffffffffffffffffff021916908373ffffffffffffffffffffffffffffffffffffffff1602179055508060058190555081600460006101000a81548173ffffffffffffffffffffffffffffffffffffffff021916908373ffffffffffffffffffffffffffffffffffffffff160217905550505050506101f7565b6105998061104b83390190565b610e45806102066000396000f3fe608060405234801561001057600080fd5b506004361061009e5760003560e01c8063a035b1fe11610066578063a035b1fe146101d3578063d22057a9146101f1578063f851a4401461023f578063faff50a814610289578063fc0c546a146102a75761009e565b80631d7876e7146100a35780636341ca0b146100ad578063663b44c51461011157806391b7f5ed1461015b57806393e59dc114610189575b600080fd5b6100ab6102f1565b005b61010f600480360360408110156100c357600080fd5b81019080803573ffffffffffffffffffffffffffffffffffffffff169060200190929190803573ffffffffffffffffffffffffffffffffffffffff169060200190929190505050610430565b005b61011961057a565b604051808273ffffffffffffffffffffffffffffffffffffffff1673ffffffffffffffffffffffffffffffffffffffff16815260200191505060405180910390f35b6101876004803603602081101561017157600080fd5b81019080803590602001909291905050506105a0565b005b610191610603565b604051808273ffffffffffffffffffffffffffffffffffffffff1673ffffffffffffffffffffffffffffffffffffffff16815260200191505060405180910390f35b6101db610629565b6040518082815260200191505060405180910390f35b61023d6004803603604081101561020757600080fd5b8101908080359060200190929190803573ffffffffffffffffffffffffffffffffffffffff16906020019092919050505061062f565b005b610247610dbe565b604051808273ffffffffffffffffffffffffffffffffffffffff1673ffffffffffffffffffffffffffffffffffffffff16815260200191505060405180910390f35b610291610de4565b6040518082815260200191505060405180910390f35b6102af610dea565b604051808273ffffffffffffffffffffffffffffffffffffffff1673ffffffffffffffffffffffffffffffffffffffff16815260200191505060405180910390f35b6000809054906101000a900473ffffffffffffffffffffffffffffffffffffffff1673ffffffffffffffffffffffffffffffffffffffff163373ffffffffffffffffffffffffffffffffffffffff161461034a57600080fd5b600260009054906101000a900473ffffffffffffffffffffffffffffffffffffffff1673ffffffffffffffffffffffffffffffffffffffff16635b0fc9c36005546000809054906101000a900473ffffffffffffffffffffffffffffffffffffffff166040518363ffffffff1660e01b8152600401808381526020018273ffffffffffffffffffffffffffffffffffffffff1673ffffffffffffffffffffffffffffffffffffffff16815260200192505050600060405180830381600087803b15801561041657600080fd5b505af115801561042a573d6000803e3d6000fd5b50505050565b6000809054906101000a900473ffffffffffffffffffffffffffffffffffffffff1673ffffffffffffffffffffffffffffffffffffffff163373ffffffffffffffffffffffffffffffffffffffff161461048957600080fd5b600160009054906101000a900473ffffffffffffffffffffffffffffffffffffffff1673ffffffffffffffffffffffffffffffffffffffff16636341ca0b83836040518363ffffffff1660e01b8152600401808373ffffffffffffffffffffffffffffffffffffffff1673ffffffffffffffffffffffffffffffffffffffff1681526020018273ffffffffffffffffffffffffffffffffffffffff1673ffffffffffffffffffffffffffffffffffffffff16815260200192505050600060405180830381600087803b15801561055e57600080fd5b505af1158015610572573d6000803e3d6000fd5b505050505050565b600260009054906101000a900473ffffffffffffffffffffffffffffffffffffffff1681565b6000809054906101000a900473ffffffffffffffffffffffffffffffffffffffff1673ffffffffffffffffffffffffffffffffffffffff163373ffffffffffffffffffffffffffffffffffffffff16146105f957600080fd5b8060068190555050565b600360009054906101000a900473ffffffffffffffffffffffffffffffffffffffff1681565b60065481565b600360009054906101000a900473ffffffffffffffffffffffffffffffffffffffff1673ffffffffffffffffffffffffffffffffffffffff16633af32abf336040518263ffffffff1660e01b8152600401808273ffffffffffffffffffffffffffffffffffffffff1673ffffffffffffffffffffffffffffffffffffffff16815260200191505060206040518083038186803b1580156106ce57600080fd5b505afa1580156106e2573d6000803e3d6000fd5b505050506040513d60208110156106f857600080fd5b810190808051906020019092919050505061071257600080fd5b6000600554836040516020018083815260200182815260200192505050604051602081830303815290604052805190602001209050600073ffffffffffffffffffffffffffffffffffffffff16600260009054906101000a900473ffffffffffffffffffffffffffffffffffffffff1673ffffffffffffffffffffffffffffffffffffffff166302571be3836040518263ffffffff1660e01b81526004018082815260200191505060206040518083038186803b1580156107d257600080fd5b505afa1580156107e6573d6000803e3d6000fd5b505050506040513d60208110156107fc57600080fd5b810190808051906020019092919050505073ffffffffffffffffffffffffffffffffffffffff161461082d57600080fd5b6000600260009054906101000a900473ffffffffffffffffffffffffffffffffffffffff1673ffffffffffffffffffffffffffffffffffffffff16630178b8bf6005546040518263ffffffff1660e01b81526004018082815260200191505060206040518083038186803b1580156108a457600080fd5b505afa1580156108b8573d6000803e3d6000fd5b505050506040513d60208110156108ce57600080fd5b810190808051906020019092919050505090508073ffffffffffffffffffffffffffffffffffffffff166301ffc9a7633b3b57de60e01b6040518263ffffffff1660e01b815260040180827bffffffffffffffffffffffffffffffffffffffffffffffffffffffff19167bffffffffffffffffffffffffffffffffffffffffffffffffffffffff1916815260200191505060206040518083038186803b15801561097757600080fd5b505afa15801561098b573d6000803e3d6000fd5b505050506040513d60208110156109a157600080fd5b81019080805190602001909291905050506109bb57600080fd5b600260009054906101000a900473ffffffffffffffffffffffffffffffffffffffff1673ffffffffffffffffffffffffffffffffffffffff166306ab592360055486306040518463ffffffff1660e01b8152600401808481526020018381526020018273ffffffffffffffffffffffffffffffffffffffff1673ffffffffffffffffffffffffffffffffffffffff1681526020019350505050600060405180830381600087803b158015610a6e57600080fd5b505af1158015610a82573d6000803e3d6000fd5b505050508073ffffffffffffffffffffffffffffffffffffffff1663d5fa2b0083856040518363ffffffff1660e01b8152600401808381526020018273ffffffffffffffffffffffffffffffffffffffff1673ffffffffffffffffffffffffffffffffffffffff16815260200192505050600060405180830381600087803b158015610b0d57600080fd5b505af1158015610b21573d6000803e3d6000fd5b50505050600260009054906101000a900473ffffffffffffffffffffffffffffffffffffffff1673ffffffffffffffffffffffffffffffffffffffff16635b0fc9c383856040518363ffffffff1660e01b8152600401808381526020018273ffffffffffffffffffffffffffffffffffffffff1673ffffffffffffffffffffffffffffffffffffffff16815260200192505050600060405180830381600087803b158015610bce57600080fd5b505af1158015610be2573d6000803e3d6000fd5b50505050600360009054906101000a900473ffffffffffffffffffffffffffffffffffffffff1673ffffffffffffffffffffffffffffffffffffffff1663291d9549336040518263ffffffff1660e01b8152600401808273ffffffffffffffffffffffffffffffffffffffff1673ffffffffffffffffffffffffffffffffffffffff168152602001915050600060405180830381600087803b158015610c8757600080fd5b505af1158015610c9b573d6000803e3d6000fd5b50505050600160009054906101000a900473ffffffffffffffffffffffffffffffffffffffff1673ffffffffffffffffffffffffffffffffffffffff1663beabacc884600460009054906101000a900473ffffffffffffffffffffffffffffffffffffffff166006546040518463ffffffff1660e01b8152600401808473ffffffffffffffffffffffffffffffffffffffff1673ffffffffffffffffffffffffffffffffffffffff1681526020018373ffffffffffffffffffffffffffffffffffffffff1673ffffffffffffffffffffffffffffffffffffffff1681526020018281526020019350505050600060405180830381600087803b158015610da057600080fd5b505af1158015610db4573d6000803e3d6000fd5b5050505050505050565b600160009054906101000a900473ffffffffffffffffffffffffffffffffffffffff1681565b60055481565b600460009054906101000a900473ffffffffffffffffffffffffffffffffffffffff168156fea265627a7a72305820814f874ed630b8855ad5a2adf6f43694df744cee5d1c1cf079168ef43803205c64736f6c634300050a00326080604052336000806101000a81548173ffffffffffffffffffffffffffffffffffffffff021916908373ffffffffffffffffffffffffffffffffffffffff16021790555034801561005057600080fd5b50610539806100606000396000f3fe6080604052600436106100345760003560e01c80636341ca0b1461009e5780638da5cb5b1461010f578063beabacc814610166575b6000809054906101000a900473ffffffffffffffffffffffffffffffffffffffff1673ffffffffffffffffffffffffffffffffffffffff166108fc349081150290604051600060405180830381858888f1935050505015801561009b573d6000803e3d6000fd5b50005b3480156100aa57600080fd5b5061010d600480360360408110156100c157600080fd5b81019080803573ffffffffffffffffffffffffffffffffffffffff169060200190929190803573ffffffffffffffffffffffffffffffffffffffff1690602001909291905050506101e1565b005b34801561011b57600080fd5b506101246103be565b604051808273ffffffffffffffffffffffffffffffffffffffff1673ffffffffffffffffffffffffffffffffffffffff16815260200191505060405180910390f35b34801561017257600080fd5b506101df6004803603606081101561018957600080fd5b81019080803573ffffffffffffffffffffffffffffffffffffffff169060200190929190803573ffffffffffffffffffffffffffffffffffffffff169060200190929190803590602001909291905050506103e3565b005b6000809054906101000a900473ffffffffffffffffffffffffffffffffffffffff1673ffffffffffffffffffffffffffffffffffffffff163373ffffffffffffffffffffffffffffffffffffffff161461023a57600080fd5b60008173ffffffffffffffffffffffffffffffffffffffff166370a08231306040518263ffffffff1660e01b8152600401808273ffffffffffffffffffffffffffffffffffffffff1673ffffffffffffffffffffffffffffffffffffffff16815260200191505060206040518083038186803b1580156102b957600080fd5b505afa1580156102cd573d6000803e3d6000fd5b505050506040513d60208110156102e357600080fd5b810190808051906020019092919050505090508173ffffffffffffffffffffffffffffffffffffffff1663a9059cbb84836040518363ffffffff1660e01b8152600401808373ffffffffffffffffffffffffffffffffffffffff1673ffffffffffffffffffffffffffffffffffffffff16815260200182815260200192505050602060405180830381600087803b15801561037d57600080fd5b505af1158015610391573d6000803e3d6000fd5b505050506040513d60208110156103a757600080fd5b810190808051906020019092919050505050505050565b6000809054906101000a900473ffffffffffffffffffffffffffffffffffffffff1681565b6000809054906101000a900473ffffffffffffffffffffffffffffffffffffffff1673ffffffffffffffffffffffffffffffffffffffff163373ffffffffffffffffffffffffffffffffffffffff161461043c57600080fd5b8173ffffffffffffffffffffffffffffffffffffffff1663a9059cbb84836040518363ffffffff1660e01b8152600401808373ffffffffffffffffffffffffffffffffffffffff1673ffffffffffffffffffffffffffffffffffffffff16815260200182815260200192505050602060405180830381600087803b1580156104c357600080fd5b505af11580156104d7573d6000803e3d6000fd5b505050506040513d60208110156104ed57600080fd5b81019080805190602001909291905050505050505056fea265627a7a723058201c4016ba5791143be2d1c5f26392807fa6d6e70a61800992202b299e1b19ae3464736f6c634300050a0032",
  "source": "pragma solidity ^0.5.2;\n\nimport \"../registry/AbstractRNS.sol\";\nimport \"../util/PaymentAdmin.sol\";\nimport \"../util/AbstractWhitelist.sol\";\nimport \"openzeppelin-solidity/contracts/token/ERC20/IERC20.sol\";\nimport \"../resolver/AbstractAddrResolver.sol\";\n\n/**\n * @title PriceSubdomainRegistrar\n * Allows anyone who is whitelisted to create subnodes under a given\n * RNS node and receive a price for doing this.\n */\ncontract PriceSubdomainRegistrar {\n    address owner = msg.sender;\n\n    PaymentAdmin public admin = new PaymentAdmin();\n    AbstractRNS public rns;\n    AbstractWhitelist public whitelist;\n    IERC20 public token;\n    bytes32 public rootNode;\n\n    uint256 public price = 1 * (10 ** 18);\n\n    bytes4 constant ADDR_SIGN = 0x3b3b57de;\n\n    modifier onlyOwner () {\n        require(msg.sender == owner);\n        _;\n    }\n\n    modifier onlyWhitelisted () {\n        require(whitelist.isWhitelisted(msg.sender));\n        _;\n    }\n\n    /**\n     * @dev Constructor\n     * @param _rns AbstractRNS RNS registry address.\n     * @param _whitelist AbstractWhitelist Whitelist to manage who can register domains.\n     * @param _token IERC20 ERC-20 token address.\n     * @param _rootNode bytes32 An owned node. The contract emits subnodes under this node.\n     */\n    constructor (AbstractRNS _rns, AbstractWhitelist _whitelist, IERC20 _token, bytes32 _rootNode) public {\n        rns = _rns;\n        whitelist = _whitelist;\n        rootNode = _rootNode;\n        token = _token;\n    }\n\n    /**\n     * @dev Registers a subnode under a given and delegated node. Who registers a domain\n     * receives a token price.\n     * @param label bytes32 The label of the new subnode.\n     */\n    function register (bytes32 label, address addr) public onlyWhitelisted() {\n        bytes32 subnode = keccak256(abi.encodePacked(rootNode, label));\n        require(rns.owner(subnode) == address(0));\n\n        AbstractAddrResolver resolver = AbstractAddrResolver(rns.resolver(rootNode));\n        require(resolver.supportsInterface(ADDR_SIGN));\n\n        rns.setSubnodeOwner(rootNode, label, address(this));\n        resolver.setAddr(subnode, addr);\n\n        rns.setOwner(subnode, addr);\n        whitelist.removeWhitelisted(msg.sender);\n        admin.transfer(addr, token, price);\n    }\n\n    /**\n     * @dev Sets the price given for the registration of a subnode.\n     * @param _price uint256 The new price.\n     */\n    function setPrice (uint256 _price) public onlyOwner() {\n        price = _price;\n    }\n\n    /**\n     * @dev Transfer the tokens stored in the token admin contract.\n     * @param receiver address The address of the token receiver.\n     * @param _token IERC20 The token to retrieve the founds of.\n     */\n    function retrieveTokens (address receiver, IERC20 _token) public onlyOwner() {\n        admin.retrieveTokens(receiver, _token);\n    }\n\n  /**\n   * @dev Transfers back the root node ownership to the contract's owner.\n   */\n  function transferBack () public onlyOwner() {\n    rns.setOwner(rootNode, owner);\n  }\n}\n",
  "sourcePath": "/Users/ilanolkies/code/rnsdomains/rns-artifacts/contracts/registrar/PriceSubdomainRegistrar.sol",
  "compiler": {
    "name": "solc",
    "version": "0.5.10+commit.5a6ea5b1.Emscripten.clang"
  },
  "schemaVersion": "3.0.10",
  "updatedAt": "2019-07-03T18:04:40.070Z",
  "devdoc": {
    "methods": {
      "constructor": {
        "details": "Constructor",
        "params": {
          "_rns": "AbstractRNS RNS registry address.",
          "_rootNode": "bytes32 An owned node. The contract emits subnodes under this node.",
          "_token": "IERC20 ERC-20 token address.",
          "_whitelist": "AbstractWhitelist Whitelist to manage who can register domains."
        }
      },
      "register(bytes32,address)": {
        "details": "Registers a subnode under a given and delegated node. Who registers a domain receives a token price.",
        "params": {
          "label": "bytes32 The label of the new subnode."
        }
      },
      "retrieveTokens(address,address)": {
        "details": "Transfer the tokens stored in the token admin contract.",
        "params": {
          "_token": "IERC20 The token to retrieve the founds of.",
          "receiver": "address The address of the token receiver."
        }
      },
      "setPrice(uint256)": {
        "details": "Sets the price given for the registration of a subnode.",
        "params": {
          "_price": "uint256 The new price."
        }
      },
      "transferBack()": {
        "details": "Transfers back the root node ownership to the contract's owner."
      }
    },
    "title": "PriceSubdomainRegistrar Allows anyone who is whitelisted to create subnodes under a given RNS node and receive a price for doing this."
  },
  "userdoc": {
    "methods": {}
  }
}