{
  "contractName": "PublicSubdomainRegistrar",
  "abi": [
    {
      "constant": true,
      "inputs": [],
      "name": "rns",
      "outputs": [
        {
          "name": "",
          "type": "address"
        }
      ],
      "payable": false,
      "stateMutability": "view",
      "type": "function"
    },
    {
      "inputs": [
        {
          "name": "_rns",
          "type": "address"
        }
      ],
      "payable": false,
      "stateMutability": "nonpayable",
      "type": "constructor"
    },
    {
      "constant": false,
      "inputs": [
        {
          "name": "node",
          "type": "bytes32"
        }
      ],
      "name": "delegate",
      "outputs": [],
      "payable": false,
      "stateMutability": "nonpayable",
      "type": "function"
    },
    {
      "constant": true,
      "inputs": [
        {
          "name": "node",
          "type": "bytes32"
        }
      ],
      "name": "isDelegated",
      "outputs": [
        {
          "name": "",
          "type": "bool"
        }
      ],
      "payable": false,
      "stateMutability": "view",
      "type": "function"
    },
    {
      "constant": false,
      "inputs": [
        {
          "name": "node",
          "type": "bytes32"
        }
      ],
      "name": "transferBack",
      "outputs": [],
      "payable": false,
      "stateMutability": "nonpayable",
      "type": "function"
    },
    {
      "constant": false,
      "inputs": [
        {
          "name": "node",
          "type": "bytes32"
        },
        {
          "name": "label",
          "type": "bytes32"
        }
      ],
      "name": "register",
      "outputs": [],
      "payable": false,
      "stateMutability": "nonpayable",
      "type": "function"
    }
  ],
  "bytecode": "0x608060405234801561001057600080fd5b506040516107b03803806107b08339818101604052602081101561003357600080fd5b8101908080519060200190929190505050806000806101000a81548173ffffffffffffffffffffffffffffffffffffffff021916908373ffffffffffffffffffffffffffffffffffffffff1602179055505061071c806100946000396000f3fe608060405234801561001057600080fd5b50600436106100575760003560e01c806318e7726d1461005c5780632f926732146100a2578063663b44c5146100da5780639d38ed0714610124578063c3254c2314610152575b600080fd5b6100886004803603602081101561007257600080fd5b8101908080359060200190929190505050610180565b604051808215151515815260200191505060405180910390f35b6100d8600480360360408110156100b857600080fd5b8101908080359060200190929190803590602001909291905050506101ec565b005b6100e26103d1565b604051808273ffffffffffffffffffffffffffffffffffffffff1673ffffffffffffffffffffffffffffffffffffffff16815260200191505060405180910390f35b6101506004803603602081101561013a57600080fd5b81019080803590602001909291905050506103f6565b005b61017e6004803603602081101561016857600080fd5b81019080803590602001909291905050506105ac565b005b60008073ffffffffffffffffffffffffffffffffffffffff166001600084815260200190815260200160002060009054906101000a900473ffffffffffffffffffffffffffffffffffffffff1673ffffffffffffffffffffffffffffffffffffffff1614159050919050565b60008060009054906101000a900473ffffffffffffffffffffffffffffffffffffffff1673ffffffffffffffffffffffffffffffffffffffff166302571be384846040516020018083815260200182815260200192505050604051602081830303815290604052805190602001206040518263ffffffff1660e01b81526004018082815260200191505060206040518083038186803b15801561028e57600080fd5b505afa1580156102a2573d6000803e3d6000fd5b505050506040513d60208110156102b857600080fd5b81019080805190602001909291905050509050600073ffffffffffffffffffffffffffffffffffffffff168173ffffffffffffffffffffffffffffffffffffffff161461030457600080fd5b6000809054906101000a900473ffffffffffffffffffffffffffffffffffffffff1673ffffffffffffffffffffffffffffffffffffffff166306ab59238484336040518463ffffffff1660e01b8152600401808481526020018381526020018273ffffffffffffffffffffffffffffffffffffffff1673ffffffffffffffffffffffffffffffffffffffff1681526020019350505050600060405180830381600087803b1580156103b457600080fd5b505af11580156103c8573d6000803e3d6000fd5b50505050505050565b6000809054906101000a900473ffffffffffffffffffffffffffffffffffffffff1681565b806001600082815260200190815260200160002060009054906101000a900473ffffffffffffffffffffffffffffffffffffffff1673ffffffffffffffffffffffffffffffffffffffff163373ffffffffffffffffffffffffffffffffffffffff161461046257600080fd5b6000809054906101000a900473ffffffffffffffffffffffffffffffffffffffff1673ffffffffffffffffffffffffffffffffffffffff16635b0fc9c3836001600086815260200190815260200160002060009054906101000a900473ffffffffffffffffffffffffffffffffffffffff166040518363ffffffff1660e01b8152600401808381526020018273ffffffffffffffffffffffffffffffffffffffff1673ffffffffffffffffffffffffffffffffffffffff16815260200192505050600060405180830381600087803b15801561053d57600080fd5b505af1158015610551573d6000803e3d6000fd5b5050505060006001600084815260200190815260200160002060006101000a81548173ffffffffffffffffffffffffffffffffffffffff021916908373ffffffffffffffffffffffffffffffffffffffff1602179055505050565b803073ffffffffffffffffffffffffffffffffffffffff166000809054906101000a900473ffffffffffffffffffffffffffffffffffffffff1673ffffffffffffffffffffffffffffffffffffffff166302571be3836040518263ffffffff1660e01b81526004018082815260200191505060206040518083038186803b15801561063657600080fd5b505afa15801561064a573d6000803e3d6000fd5b505050506040513d602081101561066057600080fd5b810190808051906020019092919050505073ffffffffffffffffffffffffffffffffffffffff161461069157600080fd5b336001600084815260200190815260200160002060006101000a81548173ffffffffffffffffffffffffffffffffffffffff021916908373ffffffffffffffffffffffffffffffffffffffff160217905550505056fea265627a7a72305820769b8a47b99cd80c615beafe8397d10ee9f21ebd73fe6a830506506ef52ace7664736f6c634300050a0032",
  "source": "pragma solidity ^0.5.2;\n\nimport \"../registry/AbstractRNS.sol\";\n\n/**\n * @title PublicSubdomainRegistrar\n * Allows anyone to create subnodes under any delegated RNS node.\n */\ncontract PublicSubdomainRegistrar {\n    AbstractRNS public rns;\n\n    mapping (bytes32 => address) delegated;\n\n    modifier onlyOwned (bytes32 node) {\n        require(rns.owner(node) == address(this));\n        _;\n    }\n\n    modifier onlyPreviousOwner (bytes32 node) {\n        require(msg.sender == delegated[node]);\n        _;\n    }\n\n    /**\n     * @dev Constructor\n     * @param _rns AbstractRNS RNS registry address\n     */\n    constructor (AbstractRNS _rns) public {\n        rns = _rns;\n    }\n\n    /**\n     * @dev Delegates an owned node to this contract.\n     * @param node bytes32 The delegated RNS node.\n     */\n    function delegate (bytes32 node) public onlyOwned(node) {\n        delegated[node] = msg.sender;\n    }\n\n    /**\n     * @dev Check if a node is delegated to this contract.\n     * @param node bytes32 An RNS node.\n     * @return if the node is delegated\n     */\n    function isDelegated (bytes32 node) public view returns (bool) {\n        return delegated[node] != address(0);\n    }\n\n    /**\n     * @dev Transfers back a delegated node to who delegated it.\n     * @param node bytes32 Node to retrieve.\n     */\n    function transferBack (bytes32 node) public onlyPreviousOwner(node) {\n        rns.setOwner(node, delegated[node]);\n        delegated[node] = address(0);\n    }\n\n    /**\n     * @dev Registers a subnode under a given and delegated node.\n     * @param node bytes32 The parent node.\n     * @param label bytes32 The hash of the label specifying the subnode.\n     */\n    function register (bytes32 node, bytes32 label) public {\n        address subnodeOwner = rns.owner(keccak256(abi.encodePacked(node, label)));\n        require(subnodeOwner == address(0));\n\n        rns.setSubnodeOwner(node, label, msg.sender);\n    }\n}\n",
  "sourcePath": "/Users/ilanolkies/code/rnsdomains/rns-artifacts/contracts/registrar/PublicSubdomainRegistrar.sol",
  "compiler": {
    "name": "solc",
    "version": "0.5.10+commit.5a6ea5b1.Emscripten.clang"
  },
  "schemaVersion": "3.0.10",
  "updatedAt": "2019-07-03T18:04:40.073Z",
  "devdoc": {
    "methods": {
      "constructor": {
        "details": "Constructor",
        "params": {
          "_rns": "AbstractRNS RNS registry address"
        }
      },
      "delegate(bytes32)": {
        "details": "Delegates an owned node to this contract.",
        "params": {
          "node": "bytes32 The delegated RNS node."
        }
      },
      "isDelegated(bytes32)": {
        "details": "Check if a node is delegated to this contract.",
        "params": {
          "node": "bytes32 An RNS node."
        },
        "return": "if the node is delegated"
      },
      "register(bytes32,bytes32)": {
        "details": "Registers a subnode under a given and delegated node.",
        "params": {
          "label": "bytes32 The hash of the label specifying the subnode.",
          "node": "bytes32 The parent node."
        }
      },
      "transferBack(bytes32)": {
        "details": "Transfers back a delegated node to who delegated it.",
        "params": {
          "node": "bytes32 Node to retrieve."
        }
      }
    },
    "title": "PublicSubdomainRegistrar Allows anyone to create subnodes under any delegated RNS node."
  },
  "userdoc": {
    "methods": {}
  }
}