{
  "contractName": "PublicResolver",
  "abi": [
    {
      "inputs": [
        {
          "name": "rnsAddr",
          "type": "address"
        }
      ],
      "payable": false,
      "stateMutability": "nonpayable",
      "type": "constructor"
    },
    {
      "payable": true,
      "stateMutability": "payable",
      "type": "fallback"
    },
    {
      "constant": true,
      "inputs": [
        {
          "name": "node",
          "type": "bytes32"
        },
        {
          "name": "kind",
          "type": "bytes32"
        }
      ],
      "name": "has",
      "outputs": [
        {
          "name": "",
          "type": "bool"
        }
      ],
      "payable": false,
      "stateMutability": "view",
      "type": "function"
    },
    {
      "constant": true,
      "inputs": [
        {
          "name": "interfaceID",
          "type": "bytes4"
        }
      ],
      "name": "supportsInterface",
      "outputs": [
        {
          "name": "",
          "type": "bool"
        }
      ],
      "payable": false,
      "stateMutability": "pure",
      "type": "function"
    },
    {
      "constant": true,
      "inputs": [
        {
          "name": "node",
          "type": "bytes32"
        }
      ],
      "name": "addr",
      "outputs": [
        {
          "name": "",
          "type": "address"
        }
      ],
      "payable": false,
      "stateMutability": "view",
      "type": "function"
    },
    {
      "constant": false,
      "inputs": [
        {
          "name": "node",
          "type": "bytes32"
        },
        {
          "name": "addrValue",
          "type": "address"
        }
      ],
      "name": "setAddr",
      "outputs": [],
      "payable": false,
      "stateMutability": "nonpayable",
      "type": "function"
    },
    {
      "constant": true,
      "inputs": [
        {
          "name": "node",
          "type": "bytes32"
        }
      ],
      "name": "content",
      "outputs": [
        {
          "name": "",
          "type": "bytes32"
        }
      ],
      "payable": false,
      "stateMutability": "view",
      "type": "function"
    },
    {
      "constant": false,
      "inputs": [
        {
          "name": "node",
          "type": "bytes32"
        },
        {
          "name": "hash",
          "type": "bytes32"
        }
      ],
      "name": "setContent",
      "outputs": [],
      "payable": false,
      "stateMutability": "nonpayable",
      "type": "function"
    }
  ],
  "bytecode": "0x608060405234801561001057600080fd5b5060405161073b38038061073b8339818101604052602081101561003357600080fd5b8101908080519060200190929190505050806000806101000a81548173ffffffffffffffffffffffffffffffffffffffff021916908373ffffffffffffffffffffffffffffffffffffffff160217905550506106a7806100946000396000f3fe6080604052600436106100555760003560e01c806301ffc9a71461005a5780632dff6941146100cc5780633b3b57de1461011b57806341b9dc2b14610196578063c3d014d6146101f3578063d5fa2b0014610238575b600080fd5b34801561006657600080fd5b506100b26004803603602081101561007d57600080fd5b8101908080357bffffffffffffffffffffffffffffffffffffffffffffffffffffffff19169060200190929190505050610293565b604051808215151515815260200191505060405180910390f35b3480156100d857600080fd5b50610105600480360360208110156100ef57600080fd5b81019080803590602001909291905050506102f5565b6040518082815260200191505060405180910390f35b34801561012757600080fd5b506101546004803603602081101561013e57600080fd5b8101908080359060200190929190505050610312565b604051808273ffffffffffffffffffffffffffffffffffffffff1673ffffffffffffffffffffffffffffffffffffffff16815260200191505060405180910390f35b3480156101a257600080fd5b506101d9600480360360408110156101b957600080fd5b81019080803590602001909291908035906020019092919050505061034f565b604051808215151515815260200191505060405180910390f35b3480156101ff57600080fd5b506102366004803603604081101561021657600080fd5b810190808035906020019092919080359060200190929190505050610434565b005b34801561024457600080fd5b506102916004803603604081101561025b57600080fd5b8101908080359060200190929190803573ffffffffffffffffffffffffffffffffffffffff169060200190929190505050610536565b005b6000633b3b57de60e01b827bffffffffffffffffffffffffffffffffffffffffffffffffffffffff191614806102ee575063d8389dc560e01b827bffffffffffffffffffffffffffffffffffffffffffffffffffffffff1916145b9050919050565b600060026000838152602001908152602001600020549050919050565b60006001600083815260200190815260200160002060009054906101000a900473ffffffffffffffffffffffffffffffffffffffff169050919050565b60007f6164647200000000000000000000000000000000000000000000000000000000821480156103e05750600073ffffffffffffffffffffffffffffffffffffffff166001600085815260200190815260200160002060009054906101000a900473ffffffffffffffffffffffffffffffffffffffff1673ffffffffffffffffffffffffffffffffffffffff1614155b8061042c57507f68617368000000000000000000000000000000000000000000000000000000008214801561042b57506000801b600260008581526020019081526020016000205414155b5b905092915050565b813373ffffffffffffffffffffffffffffffffffffffff166000809054906101000a900473ffffffffffffffffffffffffffffffffffffffff1673ffffffffffffffffffffffffffffffffffffffff166302571be3836040518263ffffffff1660e01b81526004018082815260200191505060206040518083038186803b1580156104be57600080fd5b505afa1580156104d2573d6000803e3d6000fd5b505050506040513d60208110156104e857600080fd5b810190808051906020019092919050505073ffffffffffffffffffffffffffffffffffffffff161461051957600080fd5b816002600085815260200190815260200160002081905550505050565b813373ffffffffffffffffffffffffffffffffffffffff166000809054906101000a900473ffffffffffffffffffffffffffffffffffffffff1673ffffffffffffffffffffffffffffffffffffffff166302571be3836040518263ffffffff1660e01b81526004018082815260200191505060206040518083038186803b1580156105c057600080fd5b505afa1580156105d4573d6000803e3d6000fd5b505050506040513d60208110156105ea57600080fd5b810190808051906020019092919050505073ffffffffffffffffffffffffffffffffffffffff161461061b57600080fd5b816001600085815260200190815260200160002060006101000a81548173ffffffffffffffffffffffffffffffffffffffff021916908373ffffffffffffffffffffffffffffffffffffffff16021790555050505056fea265627a7a72305820f4e3c6ca8d9c35d9f90f0421e8f81f9668afd3e0df3e1a40fb160c55cbee0c7d64736f6c634300050a0032",
  "source": "pragma solidity ^0.5.2;\n\nimport \"../registry/AbstractRNS.sol\";\n\n/**\n * A simple resolver anyone can use; only allows the owner of a node to set its\n * address.\n */\ncontract PublicResolver {\n    AbstractRNS rns;\n    mapping(bytes32=>address) addresses;\n    mapping(bytes32=>bytes32) hashes;\n\n    modifier only_owner(bytes32 node) {\n        require(rns.owner(node) == msg.sender);\n        _;\n    }\n\n    /**\n     * Constructor.\n     * @param rnsAddr The RNS registrar contract.\n     */\n    constructor(AbstractRNS rnsAddr) public {\n        rns = rnsAddr;\n    }\n\n    /**\n     * Fallback function.\n     */\n    function() payable external {\n        revert();\n    }\n\n    /**\n     * Returns true if the specified node has the specified record type.\n     * @param node The RNS node to query.\n     * @param kind The record type name, as specified in EIP137.\n     * @return True if this resolver has a record of the provided type on the\n     *         provided node.\n     */\n    function has(bytes32 node, bytes32 kind) public view returns (bool) {\n        return  (kind == \"addr\" && addresses[node] != address(0)) ||\n        (kind == \"hash\" && hashes[node] != 0);\n    }\n\n    /**\n     * Returns true if the resolver implements the interface specified by the provided hash.\n     * @param interfaceID The ID of the interface to check for.\n     * @return True if the contract implements the requested interface.\n     */\n    function supportsInterface(bytes4 interfaceID) public pure returns (bool) {\n        return interfaceID == 0x3b3b57de || interfaceID == 0xd8389dc5;\n    }\n\n    /**\n     * Returns the address associated with an RNS node.\n     * @param node The RNS node to query.\n     * @return The associated address.\n     */\n    function addr(bytes32 node) public view returns (address) {\n        return addresses[node];\n    }\n\n    /**\n     * Sets the address associated with an RNS node.\n     * May only be called by the owner of that node in the RNS registry.\n     * @param node The node to update.\n     * @param addrValue The address to set.\n     */\n    function setAddr(bytes32 node, address addrValue) public only_owner(node) {\n        addresses[node] = addrValue;\n    }\n\n    /**\n     * Returns the content hash associated with an RNS node.\n     * Note that this resource type is not standardized, and will likely change\n     * in future to a resource type based on multihash.\n     * @param node The RNS node to query.\n     * @return The associated content hash.\n     */\n    function content(bytes32 node) public view returns (bytes32) {\n        return hashes[node];\n    }\n\n    /**\n     * Sets the content hash associated with an RNS node.\n     * May only be called by the owner of that node in the RNS registry.\n     * Note that this resource type is not standardized, and will likely change\n     * in future to a resource type based on multihash.\n     * @param node The node to update.\n     * @param hash The content hash to set\n     */\n    function setContent(bytes32 node, bytes32 hash) public only_owner(node) {\n        hashes[node] = hash;\n    }\n}\n",
  "sourcePath": "/Users/ilanolkies/code/rnsdomains/rns-artifacts/contracts/resolver/PublicResolver.sol",
  "compiler": {
    "name": "solc",
    "version": "0.5.10+commit.5a6ea5b1.Emscripten.clang"
  },
  "schemaVersion": "3.0.10",
  "updatedAt": "2019-07-03T18:04:40.086Z",
  "devdoc": {
    "methods": {
      "addr(bytes32)": {
        "params": {
          "node": "The RNS node to query."
        },
        "return": "The associated address."
      },
      "constructor": {
        "params": {
          "rnsAddr": "The RNS registrar contract."
        }
      },
      "content(bytes32)": {
        "params": {
          "node": "The RNS node to query."
        },
        "return": "The associated content hash."
      },
      "has(bytes32,bytes32)": {
        "params": {
          "kind": "The record type name, as specified in EIP137.",
          "node": "The RNS node to query."
        },
        "return": "True if this resolver has a record of the provided type on the        provided node."
      },
      "setAddr(bytes32,address)": {
        "params": {
          "addrValue": "The address to set.",
          "node": "The node to update."
        }
      },
      "setContent(bytes32,bytes32)": {
        "params": {
          "hash": "The content hash to set",
          "node": "The node to update."
        }
      },
      "supportsInterface(bytes4)": {
        "params": {
          "interfaceID": "The ID of the interface to check for."
        },
        "return": "True if the contract implements the requested interface."
      }
    }
  },
  "userdoc": {
    "methods": {
      "addr(bytes32)": {
        "notice": "Returns the address associated with an RNS node."
      },
      "constructor": "Constructor.",
      "content(bytes32)": {
        "notice": "Returns the content hash associated with an RNS node. Note that this resource type is not standardized, and will likely change in future to a resource type based on multihash."
      },
      "has(bytes32,bytes32)": {
        "notice": "Returns true if the specified node has the specified record type."
      },
      "setAddr(bytes32,address)": {
        "notice": "Sets the address associated with an RNS node. May only be called by the owner of that node in the RNS registry."
      },
      "setContent(bytes32,bytes32)": {
        "notice": "Sets the content hash associated with an RNS node. May only be called by the owner of that node in the RNS registry. Note that this resource type is not standardized, and will likely change in future to a resource type based on multihash."
      },
      "supportsInterface(bytes4)": {
        "notice": "Returns true if the resolver implements the interface specified by the provided hash."
      }
    },
    "notice": "A simple resolver anyone can use; only allows the owner of a node to set its address."
  }
}