{
  "contractName": "SubdomainRegistrar",
  "abi": [
    {
      "constant": true,
      "inputs": [],
      "name": "rns",
      "outputs": [
        {
          "name": "",
          "type": "address"
        }
      ],
      "payable": false,
      "stateMutability": "view",
      "type": "function"
    },
    {
      "constant": true,
      "inputs": [],
      "name": "rootNode",
      "outputs": [
        {
          "name": "",
          "type": "bytes32"
        }
      ],
      "payable": false,
      "stateMutability": "view",
      "type": "function"
    },
    {
      "inputs": [
        {
          "name": "_rns",
          "type": "address"
        },
        {
          "name": "_rootNode",
          "type": "bytes32"
        }
      ],
      "payable": false,
      "stateMutability": "nonpayable",
      "type": "constructor"
    },
    {
      "constant": false,
      "inputs": [
        {
          "name": "label",
          "type": "bytes32"
        }
      ],
      "name": "register",
      "outputs": [],
      "payable": false,
      "stateMutability": "nonpayable",
      "type": "function"
    },
    {
      "constant": false,
      "inputs": [],
      "name": "transferBack",
      "outputs": [],
      "payable": false,
      "stateMutability": "nonpayable",
      "type": "function"
    }
  ],
  "bytecode": "0x608060405234801561001057600080fd5b506040516105603803806105608339818101604052604081101561003357600080fd5b810190808051906020019092919080519060200190929190505050816000806101000a81548173ffffffffffffffffffffffffffffffffffffffff021916908373ffffffffffffffffffffffffffffffffffffffff1602179055508060018190555033600260006101000a81548173ffffffffffffffffffffffffffffffffffffffff021916908373ffffffffffffffffffffffffffffffffffffffff1602179055505050610479806100e76000396000f3fe608060405234801561001057600080fd5b506004361061004c5760003560e01c80631d7876e714610051578063663b44c51461005b578063e1fa8e84146100a5578063faff50a8146100d3575b600080fd5b6100596100f1565b005b610063610231565b604051808273ffffffffffffffffffffffffffffffffffffffff1673ffffffffffffffffffffffffffffffffffffffff16815260200191505060405180910390f35b6100d1600480360360208110156100bb57600080fd5b8101908080359060200190929190505050610256565b005b6100db61043e565b6040518082815260200191505060405180910390f35b600260009054906101000a900473ffffffffffffffffffffffffffffffffffffffff1673ffffffffffffffffffffffffffffffffffffffff163373ffffffffffffffffffffffffffffffffffffffff161461014b57600080fd5b6000809054906101000a900473ffffffffffffffffffffffffffffffffffffffff1673ffffffffffffffffffffffffffffffffffffffff16635b0fc9c3600154600260009054906101000a900473ffffffffffffffffffffffffffffffffffffffff166040518363ffffffff1660e01b8152600401808381526020018273ffffffffffffffffffffffffffffffffffffffff1673ffffffffffffffffffffffffffffffffffffffff16815260200192505050600060405180830381600087803b15801561021757600080fd5b505af115801561022b573d6000803e3d6000fd5b50505050565b6000809054906101000a900473ffffffffffffffffffffffffffffffffffffffff1681565b6000600154826040516020018083815260200182815260200192505050604051602081830303815290604052805190602001209050600073ffffffffffffffffffffffffffffffffffffffff166000809054906101000a900473ffffffffffffffffffffffffffffffffffffffff1673ffffffffffffffffffffffffffffffffffffffff166302571be3836040518263ffffffff1660e01b81526004018082815260200191505060206040518083038186803b15801561031557600080fd5b505afa158015610329573d6000803e3d6000fd5b505050506040513d602081101561033f57600080fd5b810190808051906020019092919050505073ffffffffffffffffffffffffffffffffffffffff161461037057600080fd5b6000809054906101000a900473ffffffffffffffffffffffffffffffffffffffff1673ffffffffffffffffffffffffffffffffffffffff166306ab592360015484336040518463ffffffff1660e01b8152600401808481526020018381526020018273ffffffffffffffffffffffffffffffffffffffff1673ffffffffffffffffffffffffffffffffffffffff1681526020019350505050600060405180830381600087803b15801561042257600080fd5b505af1158015610436573d6000803e3d6000fd5b505050505050565b6001548156fea265627a7a723058206b9324255b72262f450672e1a0236568a9c9fc3338141a06b4ff93f1fa22edfd64736f6c634300050a0032",
  "source": "pragma solidity ^0.5.2;\n\nimport \"../registry/AbstractRNS.sol\";\n\n/**\n * @title SubdomainRegistrar\n * Allows anyone to create subnodes under a given and owned RNS node.\n */\ncontract SubdomainRegistrar {\n  AbstractRNS public rns;\n  bytes32 public rootNode;\n  address owner;\n\n  modifier onlyOwner () {\n    require(msg.sender == owner);\n    _;\n  }\n\n  /**\n   * @dev Constructor\n   * @param _rns AbstractRNS RNS registry address\n   * @param _rootNode An owned node. The contract emits subnodes under this node.\n   */\n  constructor (AbstractRNS _rns, bytes32 _rootNode) public {\n    rns = _rns;\n    rootNode = _rootNode;\n    owner = msg.sender;\n  }\n\n  /**\n   * @dev Registers a new subnode under the root node. The new node owner is the sender\n   * @param label bytes32 The label of the new subnode.\n   */\n  function register (bytes32 label) public {\n    bytes32 node = keccak256(abi.encodePacked(rootNode, label));\n    require(rns.owner(node) == address(0));\n\n    rns.setSubnodeOwner(rootNode, label, msg.sender);\n  }\n\n  /**\n   * @dev Transfers back the root node ownership to the contract's owner.\n   */\n  function transferBack () public onlyOwner() {\n    rns.setOwner(rootNode, owner);\n  }\n}\n",
  "sourcePath": "/Users/ilanolkies/code/rnsdomains/rns-artifacts/contracts/registrar/SubdomainRegistrar.sol",
  "compiler": {
    "name": "solc",
    "version": "0.5.10+commit.5a6ea5b1.Emscripten.clang"
  },
  "schemaVersion": "3.0.10",
  "updatedAt": "2019-07-03T18:04:40.075Z",
  "devdoc": {
    "methods": {
      "constructor": {
        "details": "Constructor",
        "params": {
          "_rns": "AbstractRNS RNS registry address",
          "_rootNode": "An owned node. The contract emits subnodes under this node."
        }
      },
      "register(bytes32)": {
        "details": "Registers a new subnode under the root node. The new node owner is the sender",
        "params": {
          "label": "bytes32 The label of the new subnode."
        }
      },
      "transferBack()": {
        "details": "Transfers back the root node ownership to the contract's owner."
      }
    },
    "title": "SubdomainRegistrar Allows anyone to create subnodes under a given and owned RNS node."
  },
  "userdoc": {
    "methods": {}
  }
}